{
  "_format": "hh-sol-artifact-1",
  "contractName": "VotingDemo",
  "sourceName": "contracts/VotingDemo.sol",
  "abi": [
    {
      "inputs": [
        {
          "internalType": "string",
          "name": "_description",
          "type": "string"
        },
        {
          "internalType": "uint256",
          "name": "_duration",
          "type": "uint256"
        }
      ],
      "stateMutability": "nonpayable",
      "type": "constructor"
    },
    {
      "anonymous": false,
      "inputs": [
        {
          "indexed": false,
          "internalType": "uint256",
          "name": "yesVotes",
          "type": "uint256"
        },
        {
          "indexed": false,
          "internalType": "uint256",
          "name": "noVotes",
          "type": "uint256"
        },
        {
          "indexed": false,
          "internalType": "uint256",
          "name": "abstainVotes",
          "type": "uint256"
        }
      ],
      "name": "ResultsRevealed",
      "type": "event"
    },
    {
      "anonymous": false,
      "inputs": [
        {
          "indexed": true,
          "internalType": "address",
          "name": "voter",
          "type": "address"
        },
        {
          "indexed": false,
          "internalType": "bytes32",
          "name": "encryptedVote",
          "type": "bytes32"
        }
      ],
      "name": "Voted",
      "type": "event"
    },
    {
      "inputs": [
        {
          "internalType": "address",
          "name": "",
          "type": "address"
        }
      ],
      "name": "encryptedVotes",
      "outputs": [
        {
          "internalType": "bytes32",
          "name": "",
          "type": "bytes32"
        }
      ],
      "stateMutability": "view",
      "type": "function"
    },
    {
      "inputs": [],
      "name": "endVoting",
      "outputs": [],
      "stateMutability": "nonpayable",
      "type": "function"
    },
    {
      "inputs": [],
      "name": "getTotalWeight",
      "outputs": [
        {
          "internalType": "uint256",
          "name": "",
          "type": "uint256"
        }
      ],
      "stateMutability": "view",
      "type": "function"
    },
    {
      "inputs": [],
      "name": "getVotedCount",
      "outputs": [
        {
          "internalType": "uint256",
          "name": "",
          "type": "uint256"
        }
      ],
      "stateMutability": "view",
      "type": "function"
    },
    {
      "inputs": [],
      "name": "getVotingActive",
      "outputs": [
        {
          "internalType": "bool",
          "name": "",
          "type": "bool"
        }
      ],
      "stateMutability": "view",
      "type": "function"
    },
    {
      "inputs": [],
      "name": "getVotingDescription",
      "outputs": [
        {
          "internalType": "string",
          "name": "",
          "type": "string"
        }
      ],
      "stateMutability": "view",
      "type": "function"
    },
    {
      "inputs": [],
      "name": "getVotingEndTime",
      "outputs": [
        {
          "internalType": "uint256",
          "name": "",
          "type": "uint256"
        }
      ],
      "stateMutability": "view",
      "type": "function"
    },
    {
      "inputs": [],
      "name": "getVotingInfo",
      "outputs": [
        {
          "internalType": "string",
          "name": "",
          "type": "string"
        },
        {
          "internalType": "uint256",
          "name": "",
          "type": "uint256"
        },
        {
          "internalType": "bool",
          "name": "",
          "type": "bool"
        }
      ],
      "stateMutability": "view",
      "type": "function"
    },
    {
      "inputs": [
        {
          "internalType": "address",
          "name": "",
          "type": "address"
        }
      ],
      "name": "hasVoted",
      "outputs": [
        {
          "internalType": "bool",
          "name": "",
          "type": "bool"
        }
      ],
      "stateMutability": "view",
      "type": "function"
    },
    {
      "inputs": [
        {
          "internalType": "uint256",
          "name": "_weight",
          "type": "uint256"
        }
      ],
      "name": "registerVoter",
      "outputs": [],
      "stateMutability": "nonpayable",
      "type": "function"
    },
    {
      "inputs": [],
      "name": "revealResults",
      "outputs": [
        {
          "internalType": "uint256",
          "name": "yesVotes",
          "type": "uint256"
        },
        {
          "internalType": "uint256",
          "name": "noVotes",
          "type": "uint256"
        },
        {
          "internalType": "uint256",
          "name": "abstainVotes",
          "type": "uint256"
        }
      ],
      "stateMutability": "view",
      "type": "function"
    },
    {
      "inputs": [
        {
          "internalType": "bytes32",
          "name": "_encryptedValue",
          "type": "bytes32"
        }
      ],
      "name": "tfheDecrypt",
      "outputs": [
        {
          "internalType": "uint256",
          "name": "",
          "type": "uint256"
        }
      ],
      "stateMutability": "pure",
      "type": "function"
    },
    {
      "inputs": [
        {
          "internalType": "uint256",
          "name": "_value",
          "type": "uint256"
        }
      ],
      "name": "tfheEncrypt",
      "outputs": [
        {
          "internalType": "bytes32",
          "name": "",
          "type": "bytes32"
        }
      ],
      "stateMutability": "pure",
      "type": "function"
    },
    {
      "inputs": [
        {
          "internalType": "uint256",
          "name": "_voteChoice",
          "type": "uint256"
        }
      ],
      "name": "vote",
      "outputs": [],
      "stateMutability": "nonpayable",
      "type": "function"
    },
    {
      "inputs": [
        {
          "internalType": "address",
          "name": "",
          "type": "address"
        }
      ],
      "name": "votingWeights",
      "outputs": [
        {
          "internalType": "uint256",
          "name": "",
          "type": "uint256"
        }
      ],
      "stateMutability": "view",
      "type": "function"
    }
  ],
  "bytecode": "0x608060405234801561001057600080fd5b50604051610d22380380610d2283398101604081905261002f9161007e565b60008061003c84826101d7565b506100478242610295565b6001808301919091556002909101805460ff19169091179055506102bc9050565b634e487b7160e01b600052604160045260246000fd5b6000806040838503121561009157600080fd5b82516001600160401b038111156100a757600080fd5b8301601f810185136100b857600080fd5b80516001600160401b038111156100d1576100d1610068565b604051601f8201601f19908116603f011681016001600160401b03811182821017156100ff576100ff610068565b60405281815282820160200187101561011757600080fd5b60005b828110156101365760208185018101518383018201520161011a565b50600060209282018301529401519395939450505050565b600181811c9082168061016257607f821691505b60208210810361018257634e487b7160e01b600052602260045260246000fd5b50919050565b601f8211156101d257806000526020600020601f840160051c810160208510156101af5750805b601f840160051c820191505b818110156101cf57600081556001016101bb565b50505b505050565b81516001600160401b038111156101f0576101f0610068565b610204816101fe845461014e565b84610188565b6020601f82116001811461023857600083156102205750848201515b600019600385901b1c1916600184901b1784556101cf565b600084815260208120601f198516915b828110156102685787850151825560209485019460019092019101610248565b50848210156102865786840151600019600387901b60f8161c191681555b50505050600190811b01905550565b808201808211156102b657634e487b7160e01b600052601160045260246000fd5b92915050565b610a57806102cb6000396000f3fe608060405234801561001057600080fd5b50600436106100f55760003560e01c8063648d2af511610097578063b1bf87b011610066578063b1bf87b014610203578063c3403ddf1461020b578063d671890814610213578063fc608d2c1461023357600080fd5b8063648d2af5146101c25780637fb64c33146101ca578063a13f2f8d146101dd578063a6eb3f31146101f057600080fd5b806309eef43e116100d357806309eef43e1461014d578063359af4b21461018057806336002f5714610197578063493da753146101a257600080fd5b80630121b93f146100fa578063029fb0491461010f57806306aba0e114610137575b600080fd5b61010d6101083660046108b6565b610248565b005b610117610408565b604080519384526020840192909252908201526060015b60405180910390f35b61013f6105a8565b60405190815260200161012e565b61017061015b3660046108cf565b60046020526000908152604090205460ff1681565b604051901515815260200161012e565b61018861060b565b60405161012e93929190610945565b60025460ff16610170565b61013f6101b03660046108cf565b60036020526000908152604090205481565b61013f6106ba565b61013f6101d83660046108b6565b610702565b61010d6101eb3660046108b6565b610718565b61013f6101fe3660046108b6565b6107bd565b60015461013f565b61010d6107cd565b61013f6102213660046108cf565b60056020526000908152604090205481565b61023b610822565b60405161012e919061096f565b60025460ff166102935760405162461bcd60e51b8152602060048201526011602482015270566f74696e67206e6f742061637469766560781b60448201526064015b60405180910390fd5b60015442106102d35760405162461bcd60e51b815260206004820152600c60248201526b159bdd1a5b99c8195b99195960a21b604482015260640161028a565b3360009081526004602052604090205460ff16156103235760405162461bcd60e51b815260206004820152600d60248201526c105b1c9958591e481d9bdd1959609a1b604482015260640161028a565b600281111561036a5760405162461bcd60e51b8152602060048201526013602482015272496e76616c696420766f74652063686f69636560681b604482015260640161028a565b33600090815260036020526040812054900361039457336000908152600360205260409020600190555b600061039f826107bd565b336000818152600560209081526040808320859055600490915290819020805460ff1916600117905551919250907fc78796858497f000f0a77d7f0c624bbaf635bf26239188e8fba52c571db2398d906103fc9084815260200190565b60405180910390a25050565b604080516002808252606082018352600092839283928392602083019080368337019050509050338160008151811061044357610443610982565b6001600160a01b039092166020928302919091018201526001600052600390527fa15bc60c955c405d20d9149c709e2460f1c2d9a497496a7f46004d1772c3054c54156104c05760018160018151811061049f5761049f610982565b60200260200101906001600160a01b031690816001600160a01b0316815250505b60005b81518110156105a15760008282815181106104e0576104e0610982565b6020908102919091018101516001600160a01b0381166000908152600490925260409091205490915060ff1615610598576001600160a01b0381166000908152600560205260408120549061053482610702565b6001600160a01b038416600090815260036020526040902054909150816105665761055f818a6109ae565b9850610594565b6001820361057f5761057881896109ae565b9750610594565b600282036105945761059181886109ae565b96505b5050505b506001016104c3565b5050909192565b600080805b6014811015610605576001600160a01b0381166000908152600360205260409020548190156105fc576001600160a01b0381166000908152600360205260409020546105f990846109ae565b92505b506001016105ad565b50919050565b60015460025460008054606093919283928392909160ff1690839061062f906109c1565b80601f016020809104026020016040519081016040528092919081815260200182805461065b906109c1565b80156106a85780601f1061067d576101008083540402835291602001916106a8565b820191906000526020600020905b81548152906001019060200180831161068b57829003601f168201915b50505050509250925092509250909192565b600080805b6014811015610605576001600160a01b038116600090815260046020526040902054819060ff16156106f957826106f5816109f5565b9350505b506001016106bf565b6000610712600160dc1b83610a0e565b92915050565b336000908152600360205260409020541561076a5760405162461bcd60e51b8152602060048201526012602482015271105b1c9958591e481c9959da5cdd195c995960721b604482015260640161028a565b600081116107ab5760405162461bcd60e51b815260206004820152600e60248201526d125b9d985b1a59081dd95a59da1d60921b604482015260640161028a565b33600090815260036020526040902055565b600061071282600160dc1b6109ae565b6001544210156108165760405162461bcd60e51b8152602060048201526014602482015273159bdd1a5b99c81b9bdd08195b991959081e595d60621b604482015260640161028a565b6002805460ff19169055565b6060600080018054610833906109c1565b80601f016020809104026020016040519081016040528092919081815260200182805461085f906109c1565b80156108ac5780601f10610881576101008083540402835291602001916108ac565b820191906000526020600020905b81548152906001019060200180831161088f57829003601f168201915b5050505050905090565b6000602082840312156108c857600080fd5b5035919050565b6000602082840312156108e157600080fd5b81356001600160a01b03811681146108f857600080fd5b9392505050565b6000815180845260005b8181101561092557602081850181015186830182015201610909565b506000602082860101526020601f19601f83011685010191505092915050565b60608152600061095860608301866108ff565b602083019490945250901515604090910152919050565b6020815260006108f860208301846108ff565b634e487b7160e01b600052603260045260246000fd5b634e487b7160e01b600052601160045260246000fd5b8082018082111561071257610712610998565b600181811c908216806109d557607f821691505b60208210810361060557634e487b7160e01b600052602260045260246000fd5b600060018201610a0757610a07610998565b5060010190565b818103818111156107125761071261099856fea2646970667358221220f384b8a151c97f9436436f9aa6325a8f46498939ad3db00a0c3c8860cc4155b364736f6c634300081c0033",
  "linkReferences": {},
  "deployedLinkReferences": {}
}