{
  "_format": "hh-sol-artifact-1",
  "contractName": "FinanceDemo",
  "sourceName": "contracts/FinanceDemo.sol",
  "abi": [
    {
      "inputs": [],
      "stateMutability": "nonpayable",
      "type": "constructor"
    },
    {
      "anonymous": false,
      "inputs": [
        {
          "indexed": true,
          "internalType": "address",
          "name": "user",
          "type": "address"
        },
        {
          "indexed": false,
          "internalType": "uint256",
          "name": "amount",
          "type": "uint256"
        }
      ],
      "name": "Deposited",
      "type": "event"
    },
    {
      "anonymous": false,
      "inputs": [
        {
          "indexed": true,
          "internalType": "address",
          "name": "user",
          "type": "address"
        },
        {
          "indexed": false,
          "internalType": "bytes32",
          "name": "encryptedProfile",
          "type": "bytes32"
        }
      ],
      "name": "ProfileUpdated",
      "type": "event"
    },
    {
      "anonymous": false,
      "inputs": [
        {
          "indexed": true,
          "internalType": "address",
          "name": "from",
          "type": "address"
        },
        {
          "indexed": true,
          "internalType": "address",
          "name": "to",
          "type": "address"
        },
        {
          "indexed": false,
          "internalType": "uint256",
          "name": "amount",
          "type": "uint256"
        }
      ],
      "name": "Transferred",
      "type": "event"
    },
    {
      "anonymous": false,
      "inputs": [
        {
          "indexed": true,
          "internalType": "address",
          "name": "user",
          "type": "address"
        },
        {
          "indexed": false,
          "internalType": "uint256",
          "name": "amount",
          "type": "uint256"
        }
      ],
      "name": "Withdrawn",
      "type": "event"
    },
    {
      "inputs": [],
      "name": "admin",
      "outputs": [
        {
          "internalType": "address",
          "name": "",
          "type": "address"
        }
      ],
      "stateMutability": "view",
      "type": "function"
    },
    {
      "inputs": [
        {
          "internalType": "uint256",
          "name": "_amount",
          "type": "uint256"
        },
        {
          "internalType": "bytes32",
          "name": "_encryptedData",
          "type": "bytes32"
        }
      ],
      "name": "deposit",
      "outputs": [],
      "stateMutability": "nonpayable",
      "type": "function"
    },
    {
      "inputs": [
        {
          "internalType": "uint256",
          "name": "_txId",
          "type": "uint256"
        }
      ],
      "name": "getTransactionDetails",
      "outputs": [
        {
          "internalType": "address",
          "name": "from",
          "type": "address"
        },
        {
          "internalType": "address",
          "name": "to",
          "type": "address"
        },
        {
          "internalType": "uint256",
          "name": "amount",
          "type": "uint256"
        },
        {
          "internalType": "bytes32",
          "name": "encryptedData",
          "type": "bytes32"
        },
        {
          "internalType": "uint256",
          "name": "timestamp",
          "type": "uint256"
        }
      ],
      "stateMutability": "view",
      "type": "function"
    },
    {
      "inputs": [],
      "name": "getTransactionHistory",
      "outputs": [
        {
          "internalType": "uint256[]",
          "name": "",
          "type": "uint256[]"
        }
      ],
      "stateMutability": "view",
      "type": "function"
    },
    {
      "inputs": [
        {
          "internalType": "address",
          "name": "_user",
          "type": "address"
        }
      ],
      "name": "getUserInfo",
      "outputs": [
        {
          "internalType": "enum FinanceDemo.UserRole",
          "name": "role",
          "type": "uint8"
        },
        {
          "internalType": "uint256",
          "name": "balance",
          "type": "uint256"
        },
        {
          "internalType": "bytes32",
          "name": "encryptedProfile",
          "type": "bytes32"
        }
      ],
      "stateMutability": "view",
      "type": "function"
    },
    {
      "inputs": [
        {
          "internalType": "address",
          "name": "_user",
          "type": "address"
        },
        {
          "internalType": "uint256",
          "name": "_initialBalance",
          "type": "uint256"
        },
        {
          "internalType": "bytes32",
          "name": "_encryptedProfile",
          "type": "bytes32"
        }
      ],
      "name": "registerUser",
      "outputs": [],
      "stateMutability": "nonpayable",
      "type": "function"
    },
    {
      "inputs": [],
      "name": "transactionCount",
      "outputs": [
        {
          "internalType": "uint256",
          "name": "",
          "type": "uint256"
        }
      ],
      "stateMutability": "view",
      "type": "function"
    },
    {
      "inputs": [],
      "name": "transactionCounter",
      "outputs": [
        {
          "internalType": "uint256",
          "name": "",
          "type": "uint256"
        }
      ],
      "stateMutability": "view",
      "type": "function"
    },
    {
      "inputs": [
        {
          "internalType": "uint256",
          "name": "",
          "type": "uint256"
        }
      ],
      "name": "transactions",
      "outputs": [
        {
          "internalType": "address",
          "name": "from",
          "type": "address"
        },
        {
          "internalType": "address",
          "name": "to",
          "type": "address"
        },
        {
          "internalType": "uint256",
          "name": "amount",
          "type": "uint256"
        },
        {
          "internalType": "bytes32",
          "name": "encryptedData",
          "type": "bytes32"
        },
        {
          "internalType": "uint256",
          "name": "timestamp",
          "type": "uint256"
        }
      ],
      "stateMutability": "view",
      "type": "function"
    },
    {
      "inputs": [
        {
          "internalType": "address",
          "name": "_to",
          "type": "address"
        },
        {
          "internalType": "uint256",
          "name": "_amount",
          "type": "uint256"
        },
        {
          "internalType": "bytes32",
          "name": "_encryptedData",
          "type": "bytes32"
        }
      ],
      "name": "transfer",
      "outputs": [],
      "stateMutability": "nonpayable",
      "type": "function"
    },
    {
      "inputs": [
        {
          "internalType": "bytes32",
          "name": "_encryptedProfile",
          "type": "bytes32"
        }
      ],
      "name": "updateEncryptedProfile",
      "outputs": [],
      "stateMutability": "nonpayable",
      "type": "function"
    },
    {
      "inputs": [
        {
          "internalType": "address",
          "name": "",
          "type": "address"
        }
      ],
      "name": "users",
      "outputs": [
        {
          "internalType": "enum FinanceDemo.UserRole",
          "name": "role",
          "type": "uint8"
        },
        {
          "internalType": "uint256",
          "name": "balance",
          "type": "uint256"
        },
        {
          "internalType": "bytes32",
          "name": "encryptedProfile",
          "type": "bytes32"
        }
      ],
      "stateMutability": "view",
      "type": "function"
    },
    {
      "inputs": [
        {
          "internalType": "uint256",
          "name": "_amount",
          "type": "uint256"
        },
        {
          "internalType": "bytes32",
          "name": "_encryptedData",
          "type": "bytes32"
        }
      ],
      "name": "withdraw",
      "outputs": [],
      "stateMutability": "nonpayable",
      "type": "function"
    }
  ],
  "bytecode": "0x6080604052348015600f57600080fd5b50600380546001600160a01b03191633179055604080516060810190915280600081526000602080830182905260409283018290526003546001600160a01b031682528190522081518154829060ff1916600183818111156070576070608f565b02179055506020820151600182015560409091015160029091015560a5565b634e487b7160e01b600052602160045260246000fd5b610cc6806100b46000396000f3fe608060405234801561001057600080fd5b50600436106100cf5760003560e01c80639ace38c21161008c578063b76d4fc311610066578063b76d4fc314610283578063b77bf60014610298578063c9630cb0146102a0578063f851a440146102b357600080fd5b80639ace38c2146101f3578063a87430ba1461023d578063a8d2021a1461027057600080fd5b80630fa683d3146100d457806314e887e8146101585780632caabfef1461016f57806357cfeeee146101845780636386c1c714610197578063971eb539146101e0575b600080fd5b6101206100e2366004610a97565b6000908152600160208190526040909120805491810154600282015460038301546004909301546001600160a01b0394851695949092169390929190565b604080516001600160a01b039687168152959094166020860152928401919091526060830152608082015260a0015b60405180910390f35b61016160025481565b60405190815260200161014f565b61018261017d366004610acc565b6102de565b005b610182610192366004610acc565b61040b565b6101d16101a5366004610aff565b6001600160a01b031660009081526020819052604090208054600182015460029092015460ff90911692565b60405161014f93929190610b37565b6101826101ee366004610a97565b610675565b610120610201366004610a97565b6001602081905260009182526040909120805491810154600282015460038301546004909301546001600160a01b039485169490921692909185565b6101d161024b366004610aff565b60006020819052908152604090208054600182015460029092015460ff909116919083565b61018261027e366004610b6d565b6106bf565b61028b610831565b60405161014f9190610b8f565b600254610161565b6101826102ae366004610b6d565b610986565b6003546102c6906001600160a01b031681565b6040516001600160a01b03909116815260200161014f565b6003546001600160a01b0316331461032a5760405162461bcd60e51b815260206004820152600a60248201526927b7363c9030b236b4b760b11b60448201526064015b60405180910390fd5b6001600160a01b03831660009081526020819052604081205460ff16600181111561035757610357610b21565b1461039a5760405162461bcd60e51b81526020600482015260136024820152725573657220616c72656164792065786973747360681b6044820152606401610321565b60408051606081019091528060018152602080820185905260409182018490526001600160a01b0386166000908152908190522081518154829060ff1916600183818111156103eb576103eb610b21565b021790555060208201516001820155604090910151600290910155505050565b6001600160a01b0383166104535760405162461bcd60e51b815260206004820152600f60248201526e496e76616c6964206164647265737360881b6044820152606401610321565b600082116104735760405162461bcd60e51b815260040161032190610bd2565b336000908152602081905260409020600101548211156104cc5760405162461bcd60e51b8152602060048201526014602482015273496e73756666696369656e742062616c616e636560601b6044820152606401610321565b6001600160a01b03831660009081526020819052604081205460ff1660018111156104f9576104f9610b21565b0361053d5760405162461bcd60e51b8152602060048201526014602482015273526563697069656e74206e6f742065786973747360601b6044820152606401610321565b336000908152602081905260408120600101805484929061055f908490610c1f565b90915550506001600160a01b0383166000908152602081905260408120600101805484929061058f908490610c38565b9091555050600280549060006105a483610c4b565b90915550506040805160a081018252338082526001600160a01b0386811660208085018281528587018981526060870189815242608089019081526002805460009081526001968790528b902099518a549089166001600160a01b0319918216178b559451958a018054969098169590941694909417909555519086015591516003850155905160049093019290925591519091907fd1ba4ac2e2a11b5101f6cb4d978f514a155b421e8ec396d2d9abaf0bb02917ee906106689086815260200190565b60405180910390a3505050565b336000818152602081815260409182902060020184905590518381527febdf3272c672f22c50e677def404048a324db7af96a8c98e787073cd3ea81aec910160405180910390a250565b600082116106df5760405162461bcd60e51b815260040161032190610bd2565b336000908152602081905260409020600101548211156107385760405162461bcd60e51b8152602060048201526014602482015273496e73756666696369656e742062616c616e636560601b6044820152606401610321565b336000908152602081905260408120600101805484929061075a908490610c1f565b90915550506002805490600061076f83610c4b565b90915550506040805160a08101825233808252600060208084018281528486018881526060860188815242608088019081526002805487526001808752968a9020985189546001600160a01b03199081166001600160a01b03928316178b559551978a01805490961697169690961790935590519386019390935591516003850155905160049093019290925591518481527f7084f5476618d8e60b11ef0d7d3f06914655adb8793e28ff7f018d4c76d505d591015b60405180910390a25050565b6060600060015b60025481116108a5576000818152600160205260409020546001600160a01b03163314806108805750600081815260016020819052604090912001546001600160a01b031633145b15610893578161088f81610c4b565b9250505b8061089d81610c4b565b915050610838565b5060008167ffffffffffffffff8111156108c1576108c1610c64565b6040519080825280602002602001820160405280156108ea578160200160208202803683370190505b509050600060015b600254811161097d576000818152600160205260409020546001600160a01b031633148061093a5750600081815260016020819052604090912001546001600160a01b031633145b1561096b578083838151811061095257610952610c7a565b60209081029190910101528161096781610c4b565b9250505b8061097581610c4b565b9150506108f2565b50909392505050565b600082116109a65760405162461bcd60e51b815260040161032190610bd2565b33600090815260208190526040812060010180548492906109c8908490610c38565b9091555050600280549060006109dd83610c4b565b90915550506040805160a08101825233808252600060208084018281528486018881526060860188815242608088019081526002805487526001808752968a9020985189546001600160a01b03199081166001600160a01b03928316178b559551978a01805490961697169690961790935590519386019390935591516003850155905160049093019290925591518481527f2da466a7b24304f47e87fa2e1e5a81b9831ce54fec19055ce277ca2f39ba42c49101610825565b600060208284031215610aa957600080fd5b5035919050565b80356001600160a01b0381168114610ac757600080fd5b919050565b600080600060608486031215610ae157600080fd5b610aea84610ab0565b95602085013595506040909401359392505050565b600060208284031215610b1157600080fd5b610b1a82610ab0565b9392505050565b634e487b7160e01b600052602160045260246000fd5b6060810160028510610b5957634e487b7160e01b600052602160045260246000fd5b938152602081019290925260409091015290565b60008060408385031215610b8057600080fd5b50508035926020909101359150565b602080825282518282018190526000918401906040840190835b81811015610bc7578351835260209384019390920191600101610ba9565b509095945050505050565b60208082526017908201527f416d6f756e74206d75737420626520706f736974697665000000000000000000604082015260600190565b634e487b7160e01b600052601160045260246000fd5b81810381811115610c3257610c32610c09565b92915050565b80820180821115610c3257610c32610c09565b600060018201610c5d57610c5d610c09565b5060010190565b634e487b7160e01b600052604160045260246000fd5b634e487b7160e01b600052603260045260246000fdfea2646970667358221220c87074a4b3766d1d142bb87bbde7bde5a4c4e665cbe724b65ffa511b888b540d64736f6c634300081c0033",
  "linkReferences": {},
  "deployedLinkReferences": {}
}